:020000040800F2
:1000000000100020B90B0008090C0008090C0008BA
:1000100000000000000000000000000000000000E0
:10002000000000000000000000000000B117000800
:10003000000000000000000061170008C51500085E
:10004000090C000800000000090C0008090C000859
:10005000090C0008090C0008090C0008090C00082C
:1000600000000000090C0008090C0008090C000839
:10007000090C0008090C0008090C00080000000029
:10008000090C00080000000000000000090C000836
:1000900000000000090C0008090C0008090C000809
:1000A00000000000090C0008000000009909000889
:1000B0000000000000000000000000000000000040
:1000C00010B5064C2378002B07D1054B002B02D02E
:1000D000044800E000BF0123237010BD3000002061
:1000E00000000000F0310008044B10B5002B03D0D5
:1000F0000349044800E000BF10BDC04600000000F6
:1001000034000020F0310008002243088B4274D3F1
:1001100003098B425FD3030A8B4244D3030B8B4208
:1001200028D3030C8B420DD3FF22090212BA030C11
:100130008B4202D31212090265D0030B8B4219D3F2
:1001400000E0090AC30B8B4201D3CB03C01A524112
:10015000830B8B4201D38B03C01A5241430B8B425A
:1001600001D34B03C01A5241030B8B4201D30B0343
:10017000C01A5241C30A8B4201D3CB02C01A52416A
:10018000830A8B4201D38B02C01A5241430A8B422D
:1001900001D34B02C01A5241030A8B4201D30B0216
:1001A000C01A5241CDD2C3098B4201D3CB01C01A30
:1001B000524183098B4201D38B01C01A524143093A
:1001C0008B4201D34B01C01A524103098B4201D328
:1001D0000B01C01A5241C3088B4201D3CB00C01A95
:1001E000524183088B4201D38B00C01A524143080D
:1001F0008B4201D34B00C01A5241411A00D2014632
:10020000524110467047FFE701B5002000F006F8A4
:1002100002BDC0460029F7D076E770477047C04658
:1002200010B500F07FFD042000F0F4FE104B1868BC
:100230006421FFF769FF013880235B0498420DD2E7
:100240000C4A50600C48036A1B021B0AC0210906B5
:100250000B430362002393600733136000F068F8D8
:1002600000F004FC00F036FB02F0F6FDFEE7C046AD
:100270001400002010E000E000ED00E010B50221C5
:10028000014800F089FE10BD0004004810B50221AD
:10029000014800F07FFE10BD0004004810B50024A6
:1002A0000AE0FFF7EBFF142002F06AFAFFF7EEFF17
:1002B000142002F065FA0134012CF2DD10BD10B5F6
:1002C0000024002C00DD10BDFFF7D8FF282002F02D
:1002D00057FAFFF7DBFF282002F052FA0134F0E76B
:1002E00010B5114B1A88114B1A8013E0FFF7E7FF86
:1002F0000134072C0BDC322002F042FA8023234128
:100300000A4A12881342F1D0FFF7C8FFF0E76420D1
:1003100002F036FAFFF7B2FFC82002F031FAFFF719
:10032000B5FF0024E5E7C046003C000800000020BF
:1003300030B585B080200121C00200F079FF02A90C
:100340000223029301240C7103224A7100258D714E
:10035000CB71064800F0DCFD0195009400232022BB
:100360000349044802F0A7F805B030BD0004004876
:1003700008320008E102000830B505000C00002139
:100380000A480CE040080133DBB2072B06D8C2074D
:10039000F8D54008064A504080B2F4E70131A14246
:1003A00003D26B5C58400023EFE730BDFFFF000035
:1003B00001A0FFFFF0B587887F00FFB203780B70C4
:1003C00043784B708F70094B1D88002307E05A005B
:1003D000D41C2E0A0E5504328D540133DBB29AB26E
:1003E0008488A242F3D3F81CF0BDC046003C00084C
:1003F00070B586887600F6B203780B7043784B7040
:100400008E70002308E05A00D41CFE250D550432DE
:10041000DC248C540133DBB29AB28488A242F2D33A
:10042000F01C70BD70B54388052B0CD88288002A5B
:1004300005D101259D40104E3468AC433460FF2443
:100440002402A2420FD003780B7043784B7043888C
:100450001B0A8B704388CB7083881B0A0B718388BF
:100460004B71062070BD01229A401300024A1468A5
:1004700023431360E7E7C046500000204388002B69
:1004800002D18288084B1A8003780B7043784B7036
:1004900043881B0A8B704388CB7083881B0A0B71BF
:1004A00083884B71062070474C00002030B5002235
:1004B00007E001249C40174D2B68A3432B600132B9
:1004C000D2B294B283889C4214D243881B199BB247
:1004D000052BF4D8D4080419E479072515402C41DC
:1004E000E407E6D501249C4023000A4C25682B43F1
:1004F0002360E4E703780B7043784B7043881B0A52
:100500008B704388CB7083881B0A0B7183884B7177
:10051000062030BD5000002030B5002201E001323D
:10052000D2B294B283889C4216D243881B199BB2E4
:10053000052BF4D801249C4023000F4C24681C4256
:10054000EDD0D3080333072515400124AC40250026
:10055000CC5C2C43CC54E2E703780B7043784B70AF
:1005600043881B0A8B704388CB7083881B0A0B71EE
:1005700083884B71062030BD50000020F8B505007F
:100580000F008388D808C0B207261E40731E9E4104
:100590003618F6B22B780B706B784B708E70C81CC7
:1005A0003200002102F01BFE002201E00132D2B233
:1005B00094B2AB889C4216D26B881B199BB2052B58
:1005C000F4D8012199400B00084909681942EDD07F
:1005D000D308033307201040012181400800F95C53
:1005E0000143F954E2E7F01CF8BDC046500000207A
:1005F00070B505000C008388D808C0B207261E40DD
:10060000731E9E413618F6B22B780B706B784B70C8
:100610008E70C81C3200002102F0E1FD002301E0D1
:100620000133DBB29AB2A9888A420FD201229A40E2
:1006300007490A42F4D0DA080332072018400121A2
:1006400081400800A15C0143A154E9E7F01C70BDA2
:100650002143658730B589B00400072973D9027832
:100660003C4B1B889A4200D070E04378062B39D966
:100670000F3BDBB2012B00D96AE083790933DBB28F
:100680008B425CD8C218511E09780902023A1578CB
:100690000D4304D0991EFFF76FFEA84251D101AD62
:1006A0001C220021280002F09AFD23782B70637829
:1006B0006B70A2781202E37813436B8022791202E6
:1006C00063791343AB80E11DA2790B20684402F0EB
:1006D0007DFD214B186800230022290001F0B6F9A6
:1006E000082031E0002B01D101202DE0C3791B024D
:1006F00085791D4304D00621FFF73EFEA8421CD198
:1007000001AD1C220021280002F069FD23782B7026
:1007100063786B70A2781202E37813436B802279BE
:10072000120263791343AB800B4B1868002300223D
:10073000290001F08BF9082006E0012004E00020E8
:1007400002E0012000E0002009B030BD0120FBE7FD
:100750000120F9E7020000205400002010B500F04D
:100760002DFB094C200000F069FB084B198889B269
:10077000200000F0B3FB064B1968064800F07CFB34
:1007800000F02CFB10BDC046003C00084C000020CF
:1007900050000020023C000830B599B0454B1B8842
:1007A000454A1380454A1380454A118853881B04E3
:1007B0000B43444A136031E06300434A995A902046
:1007C000C00500F0E7FB0134052C0DDC0123A3403C
:1007D0003C4A12681A42EFD063003B4A995A902073
:1007E000C00500F0D9FBEEE7384B1868642201A978
:1007F00001F0B9F9012813D02E4B1A882F4B1B8812
:100800009BB29A4208D12E4A118853881B040B438D
:100810002C4A1268934201D0FFF7A0FF0024D3E7CF
:1008200001AB5B78102BF9D89B00294AD3589F461F
:1008300008A901A8FFF7A2FE0400002CEED02100B9
:1008400008A8FFF799FD631C020A6D4620216D1868
:10085000EA542855A11C280000F094F9DEE708A905
:1008600001A8FFF7C5FE0400E7E708A901A8FFF704
:10087000A1FD0400E1E708A901A8FFF7B9FD040004
:10088000DBE708A901A8FFF7CDFD0400D5E708A91B
:1008900001A8FFF7F3FD0400CFE708A901A8FFF7BF
:1008A00005FE0400C9E708A901A8FFF735FE04000A
:1008B000C3E7C046003C0008020000204C000020B6
:1008C000023C000850000020643200085400002060
:1008D0001432000810B584B000221C21022001F05F
:1008E00077F8104B186080200121800200F0A0FCF6
:1008F00002A9DE23DB00029301230B7102334B714B
:1009000000248C71CC719020C00500F001FB019493
:1009100002230093002340220349044801F0CBFD49
:1009200004B010BD54000020583200089907000898
:1009300000B593B0002301931CE0191802AA515C82
:10094000D1540133019A121A9A42F6D8019B181A0F
:1009500001900FE00199019B4022D21A02AB9C4604
:1009600061440C4B1868642301F05DFB00280CD136
:1009700000230193019B002BECD0019902A8FFF703
:1009800069FE0028E6D00023DCE7019B18180190DF
:10099000F0E7C0465800002030B583B02D492E48FE
:1009A00000F099FD01280DD02C492B4800F093FD53
:1009B000012819D02A49284800F08DFD012838D097
:1009C00003B030BD244C2349200000F0A6FD2000D8
:1009D00000F062FD6B46D91D0870224B1868002399
:1009E000012201F0E2FADFE71C491B4800F095FD07
:1009F0001D4B1868002301226946073101F07DFB79
:100A000001280BD0144C00221449200000F048FDAE
:100A100001221349200000F043FDCBE78F30022173
:100A2000C00500F0B7FA6B46D9790B4800F030FDED
:100A3000C0E70B4D084C00222900200000F030FDDB
:100A40002900200000F069FD90200221C00500F07F
:100A5000A3FAB5E7050105000038014007010700CA
:100A600006010600580000205C000020F0B5D646C4
:100A70004F464646C0B58CB00024009400230022A7
:100A80000121402001F0C2F9384B18600094002386
:100A900000220121402001F0B9F9354B1860802077
:100AA0000121C00100F0D2FB80200121800200F072
:100AB000BFFB0AAD0C2399460A930A3B9A462B7159
:100AC000013398466B71AC710127EF719026F605E2
:100AD0002900300000F01CFA01220221300000F051
:100AE0005DFA01220321300000F058FA53460A93C0
:100AF0002F7143466B71AC71EC712900300000F02E
:100B000007FA0221300000F047FA1A4D280000F0E1
:100B1000C7FBE1235B0204930594069407940994B0
:100B20004B46089304A9280000F036FC03A81B23B9
:100B300003704770877000F043FA01220E492800C5
:100B400000F0AEFC0121280000F096FC0194434621
:100B50000093002340220949094801F0ACFC0CB085
:100B6000E0BCBA46B146A846F0BDC0465C000020D5
:100B700058000020003801400501050070320008CF
:100B80003109000870B504000D0000F0FDFC074BB2
:100B9000186800232A00210001F088F90122044985
:100BA000044800F07DFC00F0FBFC70BD5C00002000
:100BB00007010700003801400D48854600F080F825
:100BC0000C480D490D4A002302E0D458C4500433A8
:100BD000C4188C42F9D30A4A0A4C002301E013607E
:100BE0000432A242FBD302F0CDFAFFF719FBFEE775
:100BF000001000200000002030000020B432000867
:100C000030000020A8090020FEE7000082B0002389
:100C100001930093274A116880235B020B43136002
:100C2000244B1B688022920213400093019B0133E6
:100C30000193009B002B04D1019AA023DB019A426F
:100C4000EED11C4B1B689B0306D501230093009B30
:100C5000012B04D002B0704700230093F7E7164B36
:100C600011221A60134B5A685A605A685A605A68BF
:100C700012490A405A605968882252030A435A604E
:100C80001968802252040A431A600A4B1B689B01B0
:100C9000FBD5084B5A6803218A435A605A680139C8
:100CA0000A435A60034B5A680C231340082BF9D1AE
:100CB000D0E7C0460010024000200240FF7FC0FF86
:100CC00010B5124B1A6801210A431A605A6810487D
:100CD00002405A601A680F4802401A601A680E48AB
:100CE00002401A605A680D4802405A60DA6A0F20C2
:100CF0008243DA621A6B0A4802401A635A6B8A43CB
:100D00005A6300229A60FFF781FF10BD0010024075
:100D10000CB8FF08FFFFF6FEFFFFFBFFFFFFC0FF61
:100D2000ACFEFFFF10B5214B5A680C231340042B77
:100D300017D0082B19D0002B03D01D4B1D4A1A6069
:100D400002E01B4B1B4A1A60184B5A6812090F230A
:100D50001340194AD35CDBB2154A1168D9401160BF
:100D600010BD134B134A1A60EEE7104B5C685968CC
:100D7000C0225202A30C0F241C400234114209D19C
:100D80006201121B93019B1ADB001C192402084B01
:100D90001C60D9E7054BDB6A0F211940013105487A
:100DA000FFF7B2F94443024B1C60CDE7001002404C
:100DB0001400002000127A0004000020044B1B697C
:100DC0001B0604D5024B034A5A60034A5A60704717
:100DD0000020024023016745AB89EFCD024A136929
:100DE00080210B431361704700200240094BDB68F0
:100DF000DB0709D4074BDB68DB0607D4054BDB6850
:100E00005B0705D5032000E0012070470220FCE7C6
:100E10000420FAE70020024010B50400FFF7E6FFC7
:100E200002E0FFF7E3FF013C012801D1002CF8D1DB
:100E3000002C00D010BD0520FCE7000070B50400B8
:100E4000B0200003FFF7E8FF042800D070BD094D73
:100E50002B69022633432B616C612B6940221343BB
:100E60002B61AC300003FFF7D7FF2B69B3432B6135
:100E7000ECE7C0460020024030B583B005000C000E
:100E800000230193B0200003FFF7C6FF042801D020
:100E900003B030BD104A136901210B431361A3B2A3
:100EA0002B80AC300003FFF7B7FF042805D00A4AB7
:100EB000136901218B431361EAE702350195019B18
:100EC000240C1C80AC300003FFF7A6FF024A136914
:100ED00001218B431361DBE700200240F8B50400D9
:100EE0000D00B0200003FFF797FF042800D0F8BDE5
:100EF000064E336901273B4333612580AC30000344
:100F0000FFF78AFF3369BB433361F0E700200240FB
:100F100070B5002317E004685D0003221600AE40A0
:100F2000B443046004680E79AE4034430460C4687E
:100F30001E04F60BB2409443C460C268CC79AC4046
:100F40002243C26001330F2B23D801229A400C6840
:100F50001440A242F6D10A79013AD2B2012ADAD873
:100F600082685D000324AC40A243826082684C79B1
:100F7000AC402243826082881C04240C0125A540D9
:100F8000AA43828085888A79A24092B22A438280CD
:100F9000C1E770BD816170470185704730B5072397
:100FA0000B409B009A401400C908083189000A5878
:100FB0000F259D40AA430A500A5822430A5030BDCB
:100FC00070B58378002B19D003789A08104CC03282
:100FD0009200155903211940C900FF231E008E40BD
:100FE000B5434678B60133408B402B431351037809
:100FF0001F221A4001239340236070BD03781F22F3
:101000001A4001239340024980228B50F5E7C046E5
:1010100000E100E0042805D0054A136804218B4351
:1010200013607047024A136804210B431360F8E70A
:1010300010E000E0F8B50400774B58680C23184026
:10104000082853D008D800280CD0042800D06BE022
:10105000724B2360002007E00C2865D1704B2360A1
:10106000002001E06D4B23606B4A516809090F2392
:101070000B406C4FFB5CDBB226683100D9400B00A3
:10108000616055682D0A07212940795CC9B2CB40BF
:10109000A360126BD2054BD4634AE2605E4A126BC6
:1010A00052064FD4614A22615B4A126BD2064DD47C
:1010B0005A4A6261584A126B920749D1A361564A53
:1010C000116BC022920211425DD1E361524A116B51
:1010D000C0221203114200D078E023624E4B1B6BFA
:1010E0001B0600D595E04E4B6362F8BD4A4B5D6828
:1010F0005A68C0235B02AD0C0F20054002351A422E
:1011000008D16B015B1B9801C01AC0004019000296
:101110002060A9E7404BDB6A0F21194001313F48AD
:10112000FEF7F2FF6843F3E73C4B236000209BE7A8
:10113000394A5268520402D45A08E260AEE79A086B
:10114000E260ABE7802212022261ADE76661B1E79F
:10115000314A116B03220A40012A0ED02E4A116B2C
:1011600003220A40022A0AD02B4A116B03220A40AA
:10117000032AA4D1294AA261A1E7A6619FE78022A0
:101180001202A2619BE7244A126BC02189020A4025
:10119000802149028A4213D01F4A126BC021890262
:1011A0000A40802189028A420CD01B4A126BC0215E
:1011B00089020A408A4200D088E7184AE26185E73E
:1011C000E66183E780221202E2617FE7124B1B6B2C
:1011D000C022120313408022D202934213D00E4B3E
:1011E0001B6BC022120313408022120393420CD0C7
:1011F000094B1B6BC02212031340934200D06DE7D2
:10120000064B23626AE7266268E780231B0223629B
:1012100064E7606269E7C0460010024000127A008D
:10122000006CDC0218000020809FD50012800000B6
:10123000002904D0044A5369184350617047024A98
:10124000536983435361F9E700100240002904D039
:10125000044A9369184390617047024A9369834333
:101260009361F9E700100240002904D0044AD368D2
:101270001843D0607047024AD3688343D360F9E7CC
:1012800000100240002904D0044A13691843106179
:101290007047024A136983431361F9E70010024063
:1012A00010B5354B984215D0344B98421DD0344B75
:1012B000984225D0334B98422DD0334B984235D0AD
:1012C000324B98423DD0324B984243D0314B9842FA
:1012D00049D010BD8024E40101212000FFF7C4FFA4
:1012E00000212000FFF7C0FFF3E78024A4020121C2
:1012F0002000FFF7C7FF00212000FFF7C3FFE8E74A
:101300008024E40201212000FFF7BCFF002120001F
:10131000FFF7B8FFDDE78024240301212000FFF759
:10132000B1FF00212000FFF7ADFFD2E78024640366
:1013300001212000FFF7A6FF00212000FFF7A2FFF8
:10134000C7E701212020FFF78FFF00212020FFF7B2
:101350008BFFBEE701214020FFF786FF00214020E0
:10136000FFF782FFB5E701218020FFF77DFF002115
:101370008020FFF779FFACE70038014000440040CF
:1013800000480040004C0040005000400014014064
:1013900000180140001C0140F0B5C64600B58AB0F7
:1013A00004000D00036801229343036043682B4A45
:1013B00013408A68134343600368294A1A404B6804
:1013C000C9680B4329690B43134303608368254AAB
:1013D00013406A69134383606846FFF72BFE224B74
:1013E0009C4229D0214B9C4228D0214B9C4227D0A3
:1013F000029F23681B0425D57F002B68984619009F
:101400003800FEF781FE060041463800FEF702FF75
:101410002B685B088B4200D8013623681B0405D576
:10142000720807231340134806401E43B6B2A68134
:101430000AB080BCB846F0BD069FDAE7079FD8E740
:10144000089FD6E72B68984619003800FEF75CFE27
:10145000060041463800FEF7DDFED9E7FFCFFFFF6B
:10146000F3E9FFFFFFFCFFFF0038014000440040AC
:1014700000480040F0FF0000002904D0036801226A
:101480001343036070470368012293430360F9E745
:10149000C905C90D01857047808CC005C00D704716
:1014A00030B505008BB21B0AFF240C400121A1407E
:1014B000022B07D0032B07D0002A08D02B68194332
:1014C000296030BD051DF7E708300500F4E72B68FB
:1014D0008B432B60F5E710B58AB2120AFF240C404B
:1014E0000123A340012A0ED0022A0FD082681340A4
:1014F000090C01228A40C1690A40002B09D0002A48
:1015000009D1002006E002681340F1E74268134069
:10151000EEE7002010BD0120FCE7090C01238B4001
:101520000362704782B000230193064B1B680133AE
:1015300001D072B6FEE772B6019B002BFCD002B060
:101540007047C04628000020054B04221A60054A57
:1015500000211160044A0549116007221A60704792
:1015600010E000E018E000E014E000E0FF520700A7
:10157000044B802252051A60BFF34F8FBFF36F8F69
:101580007047C04604ED00E072B6044A13680133A8
:101590001360BFF34F8FBFF36F8F70472800002099
:1015A000074B1B68002B01D172B6FEE7044B1A688B
:1015B000013A1A601B68002B00D162B67047C04622
:1015C0002800002010B500F0C3F8040000F08EFFE2
:1015D000002803D0034B802252051A60200000F03F
:1015E000BBF810BD04ED00E010B58369023B1B7829
:1015F000642B01D072B6FEE700F08AF810BD00003F
:1016000010B5031F802464041C60043B1960043B74
:1016100016491960043B16491960043B15491960C5
:10162000043B15491960043B14491960043B1A60D6
:10163000043B134A1A60043B124A1A60043B124AE4
:101640001A60043B114A1A60043B114A1A60043BB9
:10165000104A1A60043B104A1A60043B0F4A1A6091
:10166000443803235B42036010BDC04625150008C3
:10167000121212120303030302020202010101010A
:101680001111111110101010090909090808080892
:1016900007070707060606060505050504040404F2
:1016A00010B5144B1B68144AD96A914201D072B626
:1016B000FEE79A6B114B9A4201D072B6FEE7104BCF
:1016C0001968FF2212040A431A601968FF221206E1
:1016D0000A431A6000240B4B1C60FFF735FF0A4BCE
:1016E0001C6000F02DF801F063F8FFF71BFF0020ED
:1016F00010BDC04608ED00E0B117000861170008F2
:1017000020ED00E01CED00E02800002000000000BB
:10171000074A1168086804C8022181F31488203040
:1017200080F30988BFF36F8F1047C046C046C0469C
:101730006000002000000000000000000000000029
:1017400062B6BFF34F8FBFF36F8F64DFC046C046F2
:10175000EFF3108072B6704780F310887047000076
:10176000EFF309800E4A1168243808607346F8C008
:1017700044464D4656465F46F0C072B601F018F832
:1017800062B6074A116808681430F0C8A046A94636
:10179000B246BB4680F309882438F8C81847C046CB
:1017A00060000020000000000000000000000000B9
:1017B00004207146084202D0EFF3098014E7EFF3EA
:1017C000088011E7C046C046C046C046C046C04675
:1017D00010B50400FFF7D8FEA26BE36B9A4204D069
:1017E0000024FFF7DDFE200010BD0124F9E710B54D
:1017F0000400FFF7C9FEA36B002B04D10124FFF7FF
:10180000CFFE200010BD0024F9E770B504001600DB
:10181000856B026C002A20D0002E0DD1406801F0AB
:10182000D5FC6368226C944663446360A26893426B
:1018300013D32368636010E0C06801F0C7FC236C19
:101840005A42E168CB1AE36021688B4203D2A36855
:101850009C466244E260022E03D00135A56300205D
:1018600070BD002DF9D0013DF7E710B50300080069
:101870001A6C002A0AD0D9688918D9609C68A142DC
:1018800001D31968D960D96801F0A0FC10BD70B50A
:101890000500FFF779FE4523EC5C64B201E0013CF2
:1018A00064B2002C0BDD6B6A002B08D028002430BA
:1018B00000F0D4FF0028F2D001F096F8EFE74523BE
:1018C000FF22EA54FFF76CFEFFF75EFE4423EC5C58
:1018D00064B201E0013C64B2002C0BDD2B69002BEB
:1018E00008D02800103000F0B9FF0028F2D001F035
:1018F0007BF8EFE74423FF22EA54FFF751FE70BD67
:10190000F8B504000D0000280FD0C36B002B0AD0DF
:10191000026C0026170C190C002F0AD188B200287F
:1019200005D1002E16D072B6FEE772B6FEE7101C87
:1019300004E089B200290BD1391C181C92B29BB269
:10194000534380B289B241431B0CCB181B0CE8D027
:101950000126E6E7FFF718FE2268E36B206C010022
:1019600059435118A1600021A1636260013B4343C8
:10197000D318E360FF234422A3540132A354002D63
:101980000FD12369002B03D1FFF70AFE0120F8BD18
:101990002000103000F062FF0028F5D0FFF7E8FDCE
:1019A000F2E72000103001F079FA2000243001F035
:1019B00075FAE9E710B503000298002906D1006026
:1019C000C36301640121FFF79BFF10BD0260F7E7CD
:1019D000F0B583B004000D00160000280ED00022E0
:1019E000080C230C002818D199B2002908D1002A2C
:1019F00004D1280060430300493314D972B6FEE7CE
:101A0000281CAFB2A1B2794380B29BB24343090C08
:101A10005B181B0CEBD00122E9E79BB2002BFAD13B
:101A2000031C201CEDE7483001F0D4FA071E0AD051
:101A30000200483246230021C1540090330029009F
:101A40002000FFF7B7FF380003B0F0BDF0B585B058
:101A500004000F0001921D00002805D0002905D0C8
:101A6000022D08D000263EE072B6FEE7036C002B84
:101A7000F6D072B6FEE7E36B012B01D072B6FEE73B
:101A8000002630E02A0039002000FFF7BEFE636A1E
:101A9000002B06D100280DD1FFF782FD012005B0F3
:101AA000F0BD2000243000F0D9FE0028F4D0FFF76C
:101AB0005FFDF1E7FFF75CFDEEE7FFF771FD00204A
:101AC000EDE702A800F052FF013619E0442300229E
:101AD000E25420E045230022E25421E02000FFF7F9
:101AE000D6FE00F0ABFDFFF74FFDA36BE26B934218
:101AF000C8D3022DC6D0019B002BDED0002EE0D033
:101B0000FFF74EFD00F0EAFCFFF73EFD4423E25CE8
:101B100052B2531CDAD04523E25C52B2531CD9D0E6
:101B2000FFF73EFD01A902A800F02CFF002813D109
:101B30002000FFF74DFE0028D0D020001030019982
:101B400000F07AFE2000FFF7A2FE00F077FD0028EB
:101B5000C9D1FFF70DFDC6E72000FFF798FE00F0A2
:101B60006DFD00209BE7F0B585B004000F000192E9
:101B7000002803D0002903D0002640E072B6FEE71B
:101B8000036C002B01D072B6FEE7002637E0390067
:101B90002000FFF76AFE013DA5632369002B04D1F5
:101BA000FFF7FEFC012005B0F0BD2000103000F072
:101BB00055FE0028F4D0FFF7DBFCF1E7FFF7F0FC5F
:101BC0000020F0E702A800F0D1FE013621E0442316
:101BD0000022E25428E045230022E25429E02000BC
:101BE000FFF755FE00F02AFD09E02000FFF74FFE49
:101BF00000F024FD2000FFF7FAFD002835D1FFF7A3
:101C0000C3FCA56B002DC2D1019B002BD6D0002EAA
:101C1000D8D0FFF7C5FC00F061FCFFF7B5FC44230A
:101C2000E35C5BB20133D2D04523E35C5BB20133AA
:101C3000D1D0FFF7B5FC01A902A800F0A3FE00284F
:101C4000D3D12000FFF7D3FD0028C8D020002430D6
:101C5000019900F0F1FD2000FFF719FE00F0EEFC05
:101C60000028CCD1FFF784FCC9E700209BE78168FE
:101C70004368CB180068181A814200D8401A704790
:101C8000F0B583B006000C001500019308AB1F7877
:101C90005521200001F0A3FA844201D072B6FEE77C
:101CA00024220021300001F09AFAB461B560019B52
:101CB000F36037770023336203B0F0BDF0B583B033
:101CC0000600019114001D00002A01D172B6FEE742
:101CD00083685F1B974200D91700EA19934201D22B
:101CE00072B6FEE7B36958193A00019901F06EFA2D
:101CF000BC420AD9E21BB3689A4201D972B6FEE728
:101D0000019BD919B06901F061FA6019B368834287
:101D100000D8C01A03B0F0BDF0B583B007000E00C4
:101D200015001C004368027FD2070CD50195089A64
:101D3000944201D200240BE0042201A9FFF7BEFF68
:101D400003002C0002E0AC4200D92C00002C02D190
:101D5000200003B0F0BD220031003800FFF7AEFFD5
:101D60007860F5E7F0B583B00600019114001F001C
:101D7000002A01D172B6FEE78368DD1B954200D9C7
:101D80001500AC4201D272B6FEE77A19934201D235
:101D900072B6FEE7B369D9192A00019801F016FA64
:101DA000AC4206D8E019B368834200D8C01A03B029
:101DB000F0BD019B5819621BB16901F007FAF1E708
:101DC000F0B583B005000E0017001C000368027F09
:101DD000D20707D4BC4200D93C00002C0FD1200010
:101DE00003B0F0BD042201A9FFF7BCFF0300019A74
:101DF000043C974201D31700ECE70027EAE72200F2
:101E000031002800FFF7AEFF2860E8E7F0B5C646CE
:101E100000B584B00D001C00012A05D0022A07D0AD
:101E200000280DD172B6FEE7042805D872B6FEE789
:101E3000002803D172B6FEE7012702E0042700E084
:101E40000027A84201D272B6FEE7002D00D101356D
:101E50000300263311D8431C9846253001F0BAF808
:101E6000061E0BD0010024310A9B029301940097B7
:101E70002B004246FFF704FF00E00026300004B0CC
:101E800080BCB846F0BD10B500280DD0016882684E
:101E90000368D31844681B1B04688C42F6D1581E93
:101EA000824200D8801A10BD72B6FEE7F0B5C64671
:101EB00000B586B004000E1E904603930CD0002897
:101EC0000CD083685F1E037FDB070FD5130004333C
:101ED0009A4205D372B6FEE772B6FEE772B6FEE727
:101EE0009F4231D2002203921F0002E0BA4200D882
:101EF0001700039B002B2FD004A800F023FDFFF751
:101F000043FB2000FFF7BFFF0500874220D9216A6D
:101F1000002000F03FFF6369002B17D100F06AFD3D
:101F20006061FFF73DFB039B00930023002200212B
:101F3000206A00F065FD0023636103A904A800F096
:101F400021FD0028DBD005E01F00D2E772B6FEE7D6
:101F5000FFF726FB002D03D12000FFF794FF0500BB
:101F600000972B00424631002000FFF7D5FE051EEA
:101F700004D1280006B080BCB846F0BD2000FFF7B1
:101F800076FEE3689842F4D300F0A8FA2369002BA8
:101F900008D020690026009600230022216A00F064
:101FA00097FD266100F04AFBE3E7F0B585B0040039
:101FB0000D0016000393002914D0002814D0037FCD
:101FC000DB0713D5171D2000FFF75DFF0300009707
:101FD000320029002000FFF79FFE051E08D12800CF
:101FE00005B0F0BD72B6FEE772B6FEE71700EAE78D
:101FF0002000FFF73CFEE3689842F0D3FFF7A8FB10
:1020000006002369002B0AD02069039B0193002757
:10201000009700230022216A00F0FCFD27613000B8
:10202000FFF79AFBDBE7F0B5CE4600B584B00400BD
:102030000D0003921E00002909D0002809D0037F5B
:10204000DA0708D45B071BD5C368994605E072B66A
:10205000FEE772B6FEE704239946002E28D0FFF76C
:1020600093FA2000FFF703FE070081450ED3216A93
:10207000002000F08FFE2369002B04D072B6FEE72B
:1020800000239946E9E700F0B5FC2061FFF788FAE4
:10209000B94511D30096002300220021206A00F0E8
:1020A000AFFC002323612000FFF7E1FD070003E000
:1020B0002000FFF7DCFD07004F4505D8002528006C
:1020C00004B080BCB946F0BD3B00039A2900200053
:1020D000FFF776FE051EF2D000F000FA6369002BD0
:1020E00008D060690026009600230022216A00F0D3
:1020F000EFFC666100F0A2FAE1E7F0B585B00400FC
:102100000D001600039300290FD000280FD0037F85
:10211000DB070ED504272000FFF7A9FD0300874247
:1021200009D30025280005B0F0BD72B6FEE772B6EF
:10213000FEE70027EFE7320029002000FFF740FE0E
:10214000051EEFD0FFF704FB06006369002B0AD0E1
:102150006069039B01930027009700230022216AF6
:1021600000F058FD67613000FFF7F6FADAE700008B
:10217000084B1B681B68002B04D1074B01225242FD
:102180001A607047034B1B68DB681A68024B1A60C1
:10219000F7E7C04664000020C4010020F0B583B01A
:1021A00001900E0014001D000A9F9200A521386BBB
:1021B00001F015F81C4BE3189B003A6B94466344FE
:1021C000072293431C00002E0ED000220F2A08D8AD
:1021D000B15CBB1834331970B35C002B01D00132F1
:1021E000F4E743230022FA54089B032B01D972B66B
:1021F000FEE7089BFB62381D00F05BFE38001830DC
:1022000000F057FE3F610423089A9B1ABB617F626E
:102210002A0001992000FFF7F3F93860099B002B91
:1022200000D01F6003B0F0BDFFFFFF3FF0B587B0E7
:1022300004000D0016001F000D9B002B09D00E9B03
:10224000002B08D04C230593059B4C2B05D072B670
:10225000FEE772B6FEE772B6FEE7059B4C22002150
:102260000E9800F0BCFF0E9B0D9A1A6349230222C0
:102270000E99CA540023039302910F9B01930C9B68
:1022800000933B00320029002000FFF787FF0E98E3
:1022900007B0F0BD10B5034B1B68012BFBD9FFF74E
:1022A00067F9F8E76C00002070B5002407E0A30090
:1022B0001B199A000B48801800F0F0FD0134032C24
:1022C000F5D9094D280000F0E9FD084C200000F088
:1022D000E5FD074800F0E2FD064B1D60064B1C6063
:1022E00070BDC0466C0000204C0100206001002041
:1022F000D0010020640000206800002010B5040018
:10230000FFF742F9284A136801331360274B1B6813
:10231000002B0CD0264B1B68002B0DD1234B1B68C8
:10232000DB6AE26A934207D8204B1C6004E01F4B33
:102330001C601368012B30D01E4A136801331360F0
:10234000E26A1D4B1B689A4201D91B4B1A601B495C
:1023500093009B189B00CB185B68A3609868E060B3
:10236000221D42609A60E06A83001A1892008A185F
:1023700062611A189200525801321B189B005A5081
:10238000FFF70EF90A4B1B68002B05D0074B1B68A3
:10239000DA6AE36A9A4203D310BDFFF785FFCBE701
:1023A000FFF7E6F8F8E7C046BC0000206000002018
:1023B000E401002044010020480100206C000020BE
:1023C000F0B587B00490059116001F00900000F052
:1023D00001FE051E21D04C2000F0FCFD041E18D08B
:1023E0004C22002100F0FBFE2563002C0ED00023C0
:1023F0004922A354039302940D9B01930C9B0093D9
:102400003B00320005990498FFF7C8FE200007B092
:10241000F0BD280000F074FEE7E70400F6E70000D6
:10242000F0B5C64600B50400134B1D68134B1F687A
:10243000134B1B689846134E3068043000F053FD70
:102440002C1933685C60A54208D90E4B1968043119
:10245000404600F031FD80BCB846F0BD094B19681C
:102460000431380000F028FD074B1B68A342F2D965
:10247000054B1C60EFE7C046E80100206400002027
:102480006800002060000020C401002010B586B064
:102490000024059405AC03940A9C0294099C0194C1
:1024A000089C0094FFF7C2FE002801D0FFF726FF2A
:1024B000059806B010BD10B582B0059C0194049C2F
:1024C0000094FFF77DFF002804D0FFF717FF0120DD
:1024D00002B010BD01204042FAE70000024A136832
:1024E000013313607047C04640010020F8B5484BE7
:1024F0001B68002B00D084E0464B1E6801361E602E
:10250000002E12D1444B1B681B68002B01D072B601
:10251000FEE7414A1168414B186810601960404A53
:10252000136801331360FFF723FE3E4B1B68B34271
:1025300006D900203C4B1B68002B67D0012065E0CA
:10254000002033E0374B012252421A60F2E7354B4C
:102550001A60EFE7D96851603EE000219962116886
:1025600001391160DA6A314909688A4201D92F4973
:102570000A602F499400A418A2008A1852689A6031
:102580009468DC6065609560DC6AA2001719BD0084
:102590004D195D61BD006D580135BC006550DA6AAA
:1025A000244B1B68DB6A9A4200D901201A4B1B6836
:1025B0001B68002BC6D0184B1B68DB68DB685A68A9
:1025C0009642C4D35A699C68D968A1609C684C60E3
:1025D0001D1D5168A942BDD0002159611168013902
:1025E00011609A6A002ABDD0DC69196AA160DC69B1
:1025F0004C601900183154688C42AED1196A516090
:10260000ABE70D4A1368013313600020F8BDC046E4
:1026100040010020E8010020640000206800002044
:10262000C8010020C4010020EC0100204801002066
:102630006C00002060000020CC01002010B5FEF7E7
:10264000A3FF474B1B68002B01D172B6FEE7444B3A
:102650001A68013A1A601B68002B7CD1414B1B6839
:10266000002B07D1002477E0196A516015E0D96882
:10267000516021E000233C4A1268002A4AD03A4BBC
:10268000DB68DB689A6AD869196A8160D869486032
:102690001900183150688842E6D00021996211680B
:1026A000013911605A699868D968816098684860F2
:1026B0001C1D5168A142DAD000215961116801390D
:1026C0001160D96A294A1268914201D9274A1160DA
:1026D00027488A0052189200821852689A609168BE
:1026E000D9604C609460DC6AA2001119890041181D
:1026F00059611119890009580131121992001150BC
:102700001C4A1268D26AD96A9142B4D91A4A012184
:102710001160B0E7002B01D0FFF72AFD174B1C68B2
:10272000002C0CD1144B1C68002C15D0114B1B68CD
:10273000FEF71EFF01240FE0013C002C07D0FFF73D
:10274000D5FE0028F8D00C4B01221A60F4E70B4BA1
:1027500000221A60E6E70024FEF722FF200010BDE9
:1027600040010020BC000020D001002048010020D2
:102770006C00002060000020EC010020CC01002053
:1027800010B5041E0FD0FFF7A9FE084B1B68012BE4
:1027900001D072B6FEE700212000FFF741FEFFF7EF
:1027A0004DFF002801D1FEF7E3FE10BD40010020DF
:1027B00010B51C4B1B68002B03D01B4B01221A6069
:1027C00010BD194B00221A60184B1B689A00D218D2
:1027D0009100174A8A58002A05D1002B01D0013BED
:1027E000F4E772B6FEE712489A0041184C68646834
:1027F0004C60D21891000831401884420CD09A00E5
:10280000D21891000A4A52185268D168094A1160D8
:1028100006490B601368D3E79000054A1218D16887
:102820005160ECE740010020EC010020480100204D
:102830006C0000206000002010B50C00002809D0BA
:10284000054B1968183100F037FB01212000FFF714
:10285000E7FD10BD72B6FEE76000002010B5C3684A
:10286000DB68002B4CD09A6AD869196A8160D869F4
:102870004860180018305168814243D000219962A5
:10288000116801391160294A1268002A40D15A6939
:102890009868D9688160986848601C1D5168A14299
:1028A00033D000215961116801391160D96A204A79
:1028B0001268914201D91E4A11601E488A005218BE
:1028C0009200821852689A609168D9604C60946056
:1028D000DC6AA20011198900411859611119890097
:1028E00009580131121992001150DA6A124B1B6813
:1028F000DB6A9A4218D9114B01221A60012010BDDF
:1029000072B6FEE7196A5160B8E7D9685160C8E746
:102910000B4A5168D9618C681C62606088609A6259
:10292000116801311160E0E70020E8E74001002074
:10293000480100206C00002060000020EC01002015
:10294000D001002010B5041E0AD0FEF71DFE054B75
:102950001B682360044B1B686360FEF721FE10BDFB
:1029600072B6FEE7C8010020E8010020034B1B6897
:102970000360034B1B6843607047C046C8010020DA
:10298000E801002070B504000D00002812D00029D5
:1029900012D0FEF7F9FD124B1A686368D01A11497C
:1029A000096826688E4209D0934207D800232B601D
:1029B000012409E072B6FEE772B6FEE7296881429B
:1029C00006D800232B600124FEF7EAFD200070BD2D
:1029D0009B1A5B182B602000FFF7C8FF0024F3E769
:1029E000E8010020C8010020014B01221A60704755
:1029F000EC010020014B18687047C04660000020C1
:102A0000F8B504000D0016001F00002801D072B6B2
:102A1000FEE7FFF763FDFEF7B7FD2C4B1B681B19A4
:102A200048331B78022B35D028490B68220010321E
:102A300092009B185A68AA435A600B681B194833C6
:102A400001221A70069B002B28D1FEF7A9FD002554
:102A5000FFF7F4FD012D29D0FEF796FD002F07D0DA
:102A60001A4B1B682200103292009B185B683B6077
:102A7000164B1B681B1948331B78022B1BD00025F3
:102A8000124B18680419483400232370FEF788FDA0
:102A90002800F8BDFEF784FD0025D9E7FEF780FD8C
:102AA00001210698FFF7BCFC0125D1E70028D3D10E
:102AB000FEF75EFDD0E7054B1B6822001032920046
:102AC0009B185A68B2435A600125D9E7600000207C
:102AD000F8B506000C0015001F00002901D072B6E1
:102AE000FEE7002817D0FEF74FFD069B002B06D00F
:102AF000230010339B00F3185B68069A13603319A8
:102B000048331A78D2B202211970042F27D8BF0097
:102B10003B49CB599F4672B6FEE7230010339B001A
:102B2000F31859680D435D6001241FE02300103342
:102B30009B00F318596801315960012416E0230005
:102B400010339B00F3185D6001240FE0022A43D08C
:102B5000230010339B00F3185D60012406E0294B2D
:102B60001B68002B3AD072B6FEE70124012A40D13F
:102B70007369B268F1689160F268B1685160301DA4
:102B80005A6882422CD0002272611A68013A1A6097
:102B9000F26A1D4B1B689A4201D91B4B1A601B49F4
:102BA00093009B189B00CB185B68B3609A68F26037
:102BB00050609860F06A83001A1892008A18726157
:102BC0001A189200525801321B189B005A50B36ACF
:102BD000002B08D072B6FEE70024C7E70124C5E742
:102BE000F2685A60CFE70A4B1B68DA6AF36A9A42C6
:102BF00003D3FEF7D5FC2000F8BDFEF7B9FCF8E7DB
:102C00007C320008E8010020480100206C00002010
:102C100060000020F8B504000D0016001F00002819
:102C200003D0002903D072B6FEE772B6FEE7FEF7C6
:102C30008FFD069B002B06D02B0010339B00E31862
:102C40005B68069A1360631948331A78D2B202217E
:102C50001970042F25D8BF004649CB599F462B0039
:102C600010339B00E31859680E435E6001251FE096
:102C70002B0010339B00E31859680131596001257E
:102C800016E02B0010339B00E3185E6001250FE077
:102C9000022A14D02B0010339B00E3185E6001253C
:102CA00006E0354B1B68002B0BD072B6FEE7012502
:102CB000012A4AD1A36A002B05D072B6FEE700258F
:102CC000F6E70125F4E72D4B1B68002B44D163691F
:102CD000A268E1689160E268A1685160261D5A68A7
:102CE000B24236D0002262611A68013A1A60E26A82
:102CF000234B1B689A4201D9214B1A60214993004A
:102D00009B189B00CB185B68A3609A68E2605660D2
:102D10009E60E66AB3009A1992008A1862619A1955
:102D20009200525801329B199B005A50E26A164B8E
:102D30001B68DB6A9A4208D9079B002B02D001234B
:102D4000079A1360114B01221A60FEF705FD280057
:102D5000F8BDE2685A60C5E70D4B5A68E2619668B3
:102D600026622100183171609160A3621A680132F5
:102D70001A60DBE790320008E801002040010020E3
:102D8000480100206C00002060000020EC010020C1
:102D9000D001002070B504000D1E01D072B6FEE710
:102DA00000280BD0FEF7F0FB631948331B78022B89
:102DB00007D00024FEF7F4FB200070BD044B1C6814
:102DC000F0E764194834002323700124F2E7C04679
:102DD00060000020034B0360034B0B602023136053
:102DE0007047C04678010020C000002030B58DB08B
:102DF00000230F2B07DC154AD25C08A9CA54002A0D
:102E000001D00133F5E70024002C02DD01200DB0D4
:102E100030BD00250595069507AA06A905A8FFF768
:102E2000D9FF059B0293069B019300950023079A07
:102E300008A90748FFF72AFBA300064A9850002874
:102E400001D00134E0E70020E1E7C046A4320008E9
:102E5000952200087401002010B5FFF7C7FF012874
:102E600004D0431C10D0094B1B6810BD72B6084B30
:102E7000012252421A60074B02321A60064B0022AE
:102E80001A60FEF70DFCEEE772B6FEE72C0000209C
:102E9000C4010020E4010020E80100200300083301
:102EA0004360012252428260C360036100230360D9
:102EB000704700230361704730B50C68631C10D065
:102EC000030008331A005B681D68A542FAD95368ED
:102ED0004B6099608A605160086103680133036048
:102EE00030BD0269F3E70369416882688A6041681E
:102EF00051605A68824205D0002202611A68501E51
:102F00001860704782685A60F6E700000F4A53075E
:102F10001AD0D11D072399430D4B5B1A9B180A0049
:102F20000C48026000214160D318083B072083430E
:102F30000948036059601960991A51601360074B82
:102F40001960074B19607047014BE9E7F401002055
:102F50009C070000A0090020F00100209409002037
:102F60009009002010B5174B19001B688342FBD352
:102F7000144A914207D0144A914202D3134A914213
:102F800001D972B6FEE74A688C18844208D04268BC
:102F90008418A34209D00360884200D0086010BDA5
:102FA000406812184A600800F1E7094C2468A342FF
:102FB00006D05B68D21842600B681B680360EBE7C1
:102FC0000460E9E7A0090020F40100208F09002037
:102FD000F0010020F8B5041E10D0030009330CD80E
:102FE000083407231A002240234207D001339B1ADA
:102FF000DA43A24219D3E41800E00024FFF76EFA86
:10300000384B1B68002B12D0002C5CDB5DD0364B9C
:103010001868A04260D3354B1B68354A934202D3EF
:10302000344A934208D972B6FEE70024E6E7FFF778
:103030006DFFE9E772B6FEE72C495A68A2420BD24F
:103040001A68002A08D02A498A42F3D31900294B6A
:103050009A42EFD81300F0E7224A12689A423DD014
:103060000D680835224A954202D3224A954201D979
:1030700072B6FEE71A680A605A68A24207D3121BAA
:10308000102A0BD91E19770703D072B6FEE772B665
:10309000FEE772605C600A6832600E605968401A30
:1030A000114A1060144A1268904201D2124A10600C
:1030B000802212060A435A6000221A600F4A1368DF
:1030C0000133136002E0002500E00025FFF7B6FAA7
:1030D0006B0705D072B6FEE70025F7E70025F5E798
:1030E0002800F8BDF001002090090020A009002070
:1030F000F40100208F090020940900209809002085
:1031000070B5041E30D00500083D1A4B9D4207D310
:10311000194B9D4204D86B68002B03DB72B6FEE7A7
:1031200072B6FEE70200083A1268002A01D072B6B1
:10313000FEE7002B18DA5B005A080300083B5A60D0
:10314000072A12D8FFF7CAF9083C63680B4A1168CE
:103150008C46634413602800FFF704FF084A136895
:1031600001331360FFF76AFA70BD083A002100F0DE
:1031700036F8E7E7F40100208F09002090090020CD
:103180009C09002070B500260C4D0D4C641BA4104A
:10319000A64209D1002600F02BF80A4D0A4C641B08
:1031A000A410A64205D170BDB300EB589847013674
:1031B000EEE7B300EB5898470136F2E7AC3200086F
:1031C000AC320008AC320008B0320008002310B561
:1031D0009A4200D110BDCC5CC4540133F8E703001F
:1031E0008218934200D1704719700133F9E700004B
:1031F000F8B5C046F8BC08BC9E467047F8B5C04656
:08320000F8BC08BC9E467047B3
:103208006C65645F7461736B000000001C08000843
:10321800300800085E0800086A08000876080008F8
:10322800820800088E0800081C0800081C0800080E
:103238001C0800081C0800081C0800081C080008D6
:103248001C0800081C0800089A080008A6080008BE
:103258006D6F646275735F7461736B00100020009A
:103268004000800000020004756172745F7461732D
:103278006B0000006A2B00081A2B00082C2B000892
:103288003E2B00084C2B0008AE2C00085E2C0008D2
:10329800702C0008822C0008902C000849444C45EA
:0432A8000000000022
:0432AC00E90000082D
:0432B000C100000851
:1032B40011001100000000000000000001020304DE
:1032C40006070809006CDC02000000000102030488
:1032D4000102030406070809AAAAAAAA0300000017
:0400000508000BB92B
:00000001FF
