:020000040800F2
:1000000000100020810A0008D10A0008D10A000867
:1000100000000000000000000000000000000000E0
:100020000000000000000000000000002115000892
:100030000000000000000000D1140008391300087F
:10004000D10A000800000000D10A0008D10A000807
:10005000D10A0008D10A0008D10A0008D10A000814
:1000600000000000D10A0008D10A0008D10A0008E7
:10007000D10A0008D10A0008D10A000800000000D7
:10008000D10A00080000000000000000D10A0008AA
:1000900000000000D10A0008D10A0008D10A0008B7
:1000A00000000000D10A00080000000061080008FC
:1000B0000000000000000000000000000000000040
:1000C00010B5064C2378002B07D1054B002B02D02E
:1000D000044800E000BF0123237010BD2C00002065
:1000E00000000000602F0008044B10B5002B03D067
:1000F0000349044800E000BF10BDC04600000000F6
:1001000030000020602F0008002243088B4274D387
:1001100003098B425FD3030A8B4244D3030B8B4208
:1001200028D3030C8B420DD3FF22090212BA030C11
:100130008B4202D31212090265D0030B8B4219D3F2
:1001400000E0090AC30B8B4201D3CB03C01A524112
:10015000830B8B4201D38B03C01A5241430B8B425A
:1001600001D34B03C01A5241030B8B4201D30B0343
:10017000C01A5241C30A8B4201D3CB02C01A52416A
:10018000830A8B4201D38B02C01A5241430A8B422D
:1001900001D34B02C01A5241030A8B4201D30B0216
:1001A000C01A5241CDD2C3098B4201D3CB01C01A30
:1001B000524183098B4201D38B01C01A524143093A
:1001C0008B4201D34B01C01A524103098B4201D328
:1001D0000B01C01A5241C3088B4201D3CB00C01A95
:1001E000524183088B4201D38B00C01A524143080D
:1001F0008B4201D34B00C01A5241411A00D2014632
:10020000524110467047FFE701B5002000F006F8A4
:1002100002BDC0460029F7D076E770477047C04658
:1002200010B500F0E3FC042000F0AEFD104B1868A0
:100230006421FFF769FF013880235B0498420DD2E7
:100240000C4A50600C48036A1B021B0AC0210906B5
:100250000B430362002393600733136000F022F81E
:1002600000F068FB00F09AFA02F0AEFCFEE7C04630
:100270001000002010E000E000ED00E010B50A20C2
:1002800002F036F9064C0221200000F03DFD0A2064
:1002900002F02EF90221200000F038FDEFE7C04601
:1002A0000004004830B585B080200121C00200F074
:1002B00079FE02A90223029301240C7103224A71E0
:1002C00000258D71CB71064800F0DCFC019500948F
:1002D000002320220349044801F0A5FF05B030BDEA
:1002E00000040048782F00087D02000830B50500A2
:1002F0000C0000210A480CE040080133DBB2072B58
:1003000006D8C207F8D54008064A504080B2F4E744
:100310000131A14203D26B5C58400023EFE730BDAE
:10032000FFFF000001A0FFFF70B586887600F6B2DF
:1003300003780B7043784B708E70002308E05A00EE
:10034000D41CAB250D550432CD248C540133DBB2C3
:100350009AB28488A242F2D3F01C70BD70B5868830
:100360007600F6B203780B7043784B708E700023E2
:1003700008E05A00D41CFE250D550432DC248C54B0
:100380000133DBB29AB28488A242F2D3F01C70BD72
:1003900070B54388052B0CD88288002A05D1012529
:1003A0009D40104E3468AC433460FF242402A242C6
:1003B0000FD003780B7043784B7043881B0A8B7007
:1003C0004388CB7083881B0A0B7183884B7106208E
:1003D00070BD01229A401300024A1468234313603F
:1003E000E7E7C0464800002003780B7043784B7065
:1003F00043881B0A8B704388CB7083881B0A0B7160
:1004000083884B710620704730B5002207E0012435
:100410009C40174D2B68A3432B600132D2B294B29B
:1004200083889C4214D243881B199BB2052BF4D8B5
:10043000D4080419E479072515402C41E407E6D5D2
:1004400001249C4023000A4C25682B432360E4E7E9
:1004500003780B7043784B7043881B0A8B7043887A
:10046000CB7083881B0A0B7183884B71062030BDCB
:100470004800002030B5002201E00132D2B294B22F
:1004800083889C4216D243881B199BB2052BF4D853
:1004900001249C4023000F4C24681C42EDD0D3085B
:1004A0000333072515400124AC402500CC5C2C43C8
:1004B000CC54E2E703780B7043784B7043881B0AF7
:1004C0008B704388CB7083881B0A0B7183884B71B8
:1004D000062030BD48000020F8B505000F008388D5
:1004E000D808C0B207261E40731E9E413618F6B2C9
:1004F0002B780B706B784B708E70C81C320000210B
:1005000002F025FD002201E00132D2B294B2AB88A4
:100510009C4216D26B881B199BB2052BF4D8012183
:1005200099400B00084909681942EDD0D3080333FC
:1005300007201040012181400800F95C0143F95473
:10054000E2E7F01CF8BDC0464800002070B5050089
:100550000C008388D808C0B207261E40731E9E4137
:100560003618F6B22B780B706B784B708E70C81CF7
:100570003200002102F0EBFC002301E00133DBB28A
:100580009AB2A9888A420FD201229A4007490A42A8
:10059000F4D0DA0803320720184001218140080016
:1005A000A15C0143A154E9E7F01C70BD21436587BC
:1005B00030B599B01FE06300344A995A9020C005C5
:1005C00000F0A2FB0134052C0DDC0123A340304ACE
:1005D00012681A42EFD063002C4A995A9020C00545
:1005E00000F094FBEEE72B4B18680A2201A901F0FA
:1005F00072F9012801D00024E5E701AB5B78102BEC
:10060000F9D89B00244AD3589F4608A901A8FFF7B0
:1006100063FF0400002CEED0210008A8FFF766FE5F
:10062000631C020A6D4620216D18EA542855A11C4E
:10063000280000F00BFADEE708A901A8FFF786FF03
:100640000400E7E708A901A8FFF76EFE0400E1E750
:1006500008A901A8FFF782FE0400DBE708A901A8AA
:10066000FFF796FE0400D5E708A901A8FFF7BCFE36
:100670000400CFE708A901A8FFF7C6FE0400C9E7F8
:1006800008A901A8FFF7F6FE0400C3E7D42F00086D
:10069000480000204C000020842F000830B589B0AD
:1006A0000400072971D90378112B00D070E043783A
:1006B000062B39D90F3BDBB2012B00D96AE08379D5
:1006C0000933DBB28B425CD8C218511E097809028B
:1006D000023A15780D4304D0991EFFF707FEA84291
:1006E00051D101AD1C220021280002F030FC2378FA
:1006F0002B7063786B70A2781202E37813436B80DF
:100700002279120263791343AB80E11DA2790B2099
:10071000684402F013FC204B1868002300222900D3
:1007200001F04CF8082031E0002B01D101202DE030
:10073000C3791B0285791D4304D00621FFF7D6FD3E
:10074000A8421CD101AD1C220021280002F0FFFBB1
:1007500023782B7063786B70A2781202E3781343CE
:100760006B802279120263791343AB800A4B1868BD
:1007700000230022290001F021F8082006E00120D2
:1007800004E0002002E0012000E0002009B030BDBC
:100790000120FBE70120F9E74C00002010B584B0F0
:1007A00000221C21022000F0CBFF104B186080209B
:1007B0000121800200F0F6FB02A9DE23DB00029398
:1007C00001230B7102334B7100248C71CC7190208A
:1007D000C00500F057FA0194022300930023402241
:1007E0000349044801F01FFD04B010BD4C00002077
:1007F000C82F0008B105000800B593B0002301938D
:100800001CE0191802AA515CD1540133019A121A42
:100810009A42F6D8019B181A01900FE00199019BAA
:100820004022D21A02AB9C4661440C4B18686423E8
:1008300001F0B1FA00280CD100230193019B002B99
:10084000ECD0019902A8FFF729FF0028E6D0002389
:10085000DCE7019B18180190F0E7C046500000202B
:1008600030B583B02D492E4800F0EFFC01280DD0A3
:100870002C492B4800F0E9FC012819D02A492848C6
:1008800000F0E3FC012838D003B030BD244C2349EC
:10089000200000F0FCFC200000F0B8FC6B46D91DE5
:1008A0000870224B18680023012201F036FADFE7B6
:1008B0001C491B4800F0EBFC1D4B1868002301226B
:1008C0006946073101F0D1FA01280BD0144C0022FF
:1008D0001449200000F09EFC01221349200000F082
:1008E00099FCCBE78F300221C00500F00DFA6B4672
:1008F000D9790B4800F086FCC0E70B4D084C00226C
:100900002900200000F086FC2900200000F0BFFC38
:1009100090200221C00500F0F9F9B5E705010500B6
:1009200000380140070107000601060050000020C2
:1009300054000020F0B5D6464F464646C0B58CB0B0
:1009400000240094002300220121402001F016F928
:10095000384B18600094002300220121402001F050
:100960000DF9354B186080200121C00100F028FBF3
:1009700080200121800200F015FB0AAD0C2399466E
:100980000A930A3B9A462B71013398466B71AC71FE
:100990000127EF719026F6052900300000F072F96A
:1009A00001220221300000F0B3F9012203213000BE
:1009B00000F0AEF953460A932F7143466B71AC7148
:1009C000EC712900300000F05DF90221300000F0E8
:1009D0009DF91A4D280000F01DFBE1235B020493F2
:1009E00005940694079409944B46089304A928009B
:1009F00000F08CFB03A81B2303704770877000F086
:100A000099F901220E49280000F004FC0121280078
:100A100000F0ECFB01944346009300234022094977
:100A2000094801F000FC0CB0E0BCBA46B146A8464B
:100A3000F0BDC046540000205000002000380140A6
:100A400005010500E02F0008F907000870B5040053
:100A50000D0000F053FC074B186800232A0021000A
:100A600001F0DCF801220449044800F0D3FB00F057
:100A700051FC70BD54000020070107000038014000
:100A80000D48854600F080F80C480D490D4A0023BA
:100A900002E0D458C4500433C4188C42F9D30A4A33
:100AA0000A4C002301E013600432A242FBD302F09F
:100AB00021FAFFF7B5FBFEE7001000200000002040
:100AC0002C000020243000082C000020A009002069
:100AD000FEE7000082B0002301930093274A1168CB
:100AE00080235B020B431360244B1B68802292021D
:100AF00013400093019B01330193009B002B04D111
:100B0000019AA023DB019A42EED11C4B1B689B0388
:100B100006D501230093009B012B04D002B070473F
:100B200000230093F7E7164B11221A60134B5A6803
:100B30005A605A685A605A6812490A405A6059689D
:100B4000882252030A435A601968802252040A43D9
:100B50001A600A4B1B689B01FBD5084B5A6803219E
:100B60008A435A605A6801390A435A60034B5A68EB
:100B70000C231340082BF9D1D0E7C04600100240E7
:100B800000200240FF7FC0FF10B5124B1A68012100
:100B90000A431A605A68104802405A601A680F489F
:100BA00002401A601A680E4802401A605A680D48DE
:100BB00002405A60DA6A0F208243DA621A6B0A48EE
:100BC00002401A635A6B8A435A6300229A60FFF705
:100BD00081FF10BD001002400CB8FF08FFFFF6FEB9
:100BE000FFFFFBFFFFFFC0FFACFEFFFF10B5214B77
:100BF0005A680C231340042B17D0082B19D0002B54
:100C000003D01D4B1D4A1A6002E01B4B1B4A1A60A1
:100C1000184B5A6812090F231340194AD35CDBB2F0
:100C2000154A1168D940116010BD134B134A1A6060
:100C3000EEE7104B5C685968C0225202A30C0F24E7
:100C40001C400234114209D16201121B93019B1A0C
:100C5000DB001C192402084B1C60D9E7054BDB6A3A
:100C60000F21194001310548FFF74EFA4443024B6A
:100C70001C60CDE7001002401000002000127A0036
:100C80000000002070B5002317E004685D00032217
:100C90001600AE40B443046004680E79AE4034439D
:100CA0000460C4681E04F60BB2409443C460C2687A
:100CB000CC79AC402243C26001330F2B23D80122F0
:100CC0009A400C681440A242F6D10A79013AD2B295
:100CD000012ADAD882685D000324AC40A243826016
:100CE00082684C79AC402243826082881C04240CC8
:100CF0000125A540AA43828085888A79A24092B2C4
:100D00002A438280C1E770BD8161704701857047C9
:100D100030B507230B409B009A401400C9080831E6
:100D200089000A580F259D40AA430A500A582243B9
:100D30000A5030BD70B58378002B19D003789A081B
:100D4000104CC0329200155903211940C900FF23ED
:100D50001E008E40B5434678B60133408B402B438E
:100D6000135103781F221A4001239340236070BD62
:100D700003781F221A4001239340024980228B509E
:100D8000F5E7C04600E100E0042805D0054A1368F5
:100D900004218B4313607047024A136804210B43FC
:100DA0001360F8E710E000E0F8B50400774B5868EE
:100DB0000C231840082853D008D800280CD0042849
:100DC00000D06BE0724B2360002007E00C2865D157
:100DD000704B2360002001E06D4B23606B4A51682B
:100DE00009090F230B406C4FFB5CDBB22668310016
:100DF000D9400B00616055682D0A07212940795CB4
:100E0000C9B2CB40A360126BD2054BD4634AE260F7
:100E10005E4A126B52064FD4614A22615B4A126BE2
:100E2000D2064DD45A4A6261584A126B920749D190
:100E3000A361564A116BC022920211425DD1E36157
:100E4000524A116BC0221203114200D078E0236293
:100E50004E4B1B6B1B0600D595E04E4B6362F8BDF5
:100E60004A4B5D685A68C0235B02AD0C0F200540F9
:100E700002351A4208D16B015B1B9801C01AC000F1
:100E8000401900022060A9E7404BDB6A0F2119409E
:100E900001313F48FFF738F96843F3E73C4B2360E3
:100EA00000209BE7394A5268520402D45A08E26093
:100EB000AEE79A08E260ABE7802212022261ADE75A
:100EC0006661B1E7314A116B03220A40012A0ED054
:100ED0002E4A116B03220A40022A0AD02B4A116BB8
:100EE00003220A40032AA4D1294AA261A1E7A661EC
:100EF0009FE780221202A2619BE7244A126BC02165
:100F000089020A40802149028A4213D01F4A126B8B
:100F1000C02189020A40802189028A420CD01B4AE2
:100F2000126BC02189020A408A4200D088E7184A21
:100F3000E26185E7E66183E780221202E2617FE7F2
:100F4000124B1B6BC022120313408022D202934229
:100F500013D00E4B1B6BC0221203134080221203CE
:100F600093420CD0094B1B6BC022120313409342D7
:100F700000D06DE7064B23626AE7266268E78023AC
:100F80001B02236264E7606269E7C046001002400A
:100F900000127A00006CDC0214000020809FD50053
:100FA00012800000002904D0044A5369184350619C
:100FB0007047024A536983435361F9E700100240C6
:100FC000002904D0044A9369184390617047024A8B
:100FD000936983439361F9E700100240002904D02C
:100FE000044AD3681843D0607047024AD3688343E9
:100FF000D360F9E700100240002904D0044A1369C5
:10100000184310617047024A136983431361F9E77B
:101010000010024010B5354B984215D0344B984221
:101020001DD0344B984225D0334B98422DD0334BB2
:10103000984235D0324B98423DD0324B984243D003
:10104000314B984249D010BD8024E4010121200099
:10105000FFF7C4FF00212000FFF7C0FFF3E7802463
:10106000A40201212000FFF7C7FF00212000FFF7A5
:10107000C3FFE8E78024E40201212000FFF7BCFF62
:1010800000212000FFF7B8FFDDE7802424030121C1
:101090002000FFF7B1FF00212000FFF7ADFFD2E7EE
:1010A0008024640301212000FFF7A6FF0021200017
:1010B000FFF7A2FFC7E701212020FFF78FFF0021E4
:1010C0002020FFF78BFFBEE701214020FFF786FFBE
:1010D00000214020FFF782FFB5E701218020FFF7C4
:1010E0007DFF00218020FFF779FFACE70038014049
:1010F0000044004000480040004C004000500040C8
:101100000014014000180140001C0140F0B5C64623
:1011100000B58AB004000D00036801229343036008
:1011200043682B4A13408A68134343600368294A83
:101130001A404B68C9680B4329690B43134303608A
:101140008368254A13406A69134383606846FFF742
:101150002BFE224B9C4229D0214B9C4228D0214B74
:101160009C4227D0029F23681B0425D57F002B6853
:10117000984619003800FEF7C7FF060041463800C0
:10118000FFF748F82B685B088B4200D801362368CC
:101190001B0405D5720807231340134806401E435D
:1011A000B6B2A6810AB080BCB846F0BD069FDAE7A9
:1011B000079FD8E7089FD6E72B68984619003800A4
:1011C000FEF7A2FF060041463800FFF723F8D9E7F3
:1011D000FFCFFFFFF3E9FFFFFFFCFFFF00380140F7
:1011E0000044004000480040F0FF0000002904D007
:1011F000036801221343036070470368012293438D
:101200000360F9E7C905C90D01857047808CC005E9
:10121000C00D704730B505008BB21B0AFF240C408F
:101220000121A140022B07D0032B07D0002A08D0B0
:101230002B681943296030BD051DF7E7083005000C
:10124000F4E72B688B432B60F5E710B58AB2120ADE
:10125000FF240C400123A340012A0ED0022A0FD004
:1012600082681340090C01228A40C1690A40002BA0
:1012700009D0002A09D1002006E002681340F1E7F6
:1012800042681340EEE7002010BD0120FCE7090C86
:1012900001238B400362704782B000230193064B09
:1012A0001B68013301D072B6FEE772B6019B002BBA
:1012B000FCD002B07047C04624000020054B042239
:1012C0001A60054A00211160044A0549116007228D
:1012D0001A60704710E000E018E000E014E000E061
:1012E000FF520700044B802252051A60BFF34F8F54
:1012F000BFF36F8F7047C04604ED00E072B6044A3A
:10130000136801331360BFF34F8FBFF36F8F7047C4
:1013100024000020074B1B68002B01D172B6FEE7AA
:10132000044B1A68013A1A601B68002B00D162B6A0
:101330007047C0462400002010B500F0C1F804003A
:1013400000F08CFF002803D0034B802252051A6066
:10135000200000F0B9F810BD04ED00E010B583697D
:10136000023B1B78642B01D072B6FEE700F088F8D0
:1013700010BD000010B5031F802464041C60043BF2
:101380001960043B16491960043B16491960043B77
:1013900015491960043B15491960043B144919604B
:1013A000043B1A60043B134A1A60043B124A1A6059
:1013B000043B124A1A60043B114A1A60043B114A6A
:1013C0001A60043B104A1A60043B104A1A60043B3E
:1013D0000F4A1A60443803235B42036010BDC046C5
:1013E00099120008121212120303030302020202EE
:1013F0000101010111111111101010100909090941
:101400000808080807070707060606060505050574
:101410000404040410B5144B1B68144AD96A9142A1
:1014200001D072B6FEE79A6B114B9A4201D072B6A8
:10143000FEE7104B1968FF2212040A431A6019686C
:10144000FF2212060A431A6000240B4B1C60FFF7B0
:1014500035FF0A4B1C6000F02BF801F061F8FFF734
:101460001BFF002010BDC04608ED00E0211500085C
:10147000D114000820ED00E01CED00E02400002065
:10148000074A1168086804C8022181F314882030D3
:1014900080F30988BFF36F8F1047C046C046C0462F
:1014A00058000020000000000000000000000000C4
:1014B00062B6BFF34F8FBFF36F8F64DFC046C04685
:1014C000EFF3108072B6704780F310887047000009
:1014D000EFF309800E4A1168243808607346F8C09B
:1014E00044464D4656465F46F0C072B601F018F8C5
:1014F00062B6074A116808681430F0C8A046A946C9
:10150000B246BB4680F309882438F8C81847C0465D
:101510005800002000000000000000000000000053
:1015200004207146084202D0EFF3098016E7EFF37A
:10153000088013E7C046C046C046C046C046C04605
:1015400010B50400FFF7DAFEA26BE36B9A4204D0F9
:101550000024FFF7DFFE200010BD0124F9E710B5DD
:101560000400FFF7CBFEA36B002B04D10124FFF78F
:10157000D1FE200010BD0024F9E770B5040016006C
:10158000856B026C002A20D0002E0DD1406801F03E
:10159000D5FC6368226C944663446360A2689342FE
:1015A00013D32368636010E0C06801F0C7FC236CAC
:1015B0005A42E168CB1AE36021688B4203D2A368E8
:1015C0009C466244E260022E03D00135A5630020F0
:1015D00070BD002DF9D0013DF7E710B503000800FC
:1015E0001A6C002A0AD0D9688918D9609C68A1426F
:1015F00001D31968D960D96801F0A0FC10BD70B59D
:101600000500FFF77BFE4523EC5C64B201E0013C82
:1016100064B2002C0BDD6B6A002B08D0280024304C
:1016200000F0D4FF0028F2D001F096F8EFE7452350
:10163000FF22EA54FFF76EFEFFF760FE4423EC5CE6
:1016400064B201E0013C64B2002C0BDD2B69002B7D
:1016500008D02800103000F0B9FF0028F2D001F0C7
:101660007BF8EFE74423FF22EA54FFF753FE70BDF7
:10167000F8B504000D0000280FD0C36B002B0AD072
:10168000026C0026170C190C002F0AD188B2002812
:1016900005D1002E16D072B6FEE772B6FEE7101C1A
:1016A00004E089B200290BD1391C181C92B29BB2FC
:1016B000534380B289B241431B0CCB181B0CE8D0BA
:1016C0000126E6E7FFF71AFE2268E36B206C0100B3
:1016D00059435118A1600021A1636260013B43435B
:1016E000D318E360FF234422A3540132A354002DF6
:1016F0000FD12369002B03D1FFF70CFE0120F8BDA9
:101700002000103000F062FF0028F5D0FFF7EAFD5E
:10171000F2E72000103001F079FA2000243001F0C7
:1017200075FAE9E710B503000298002906D10060B8
:10173000C36301640121FFF79BFF10BD0260F7E75F
:10174000F0B583B004000D00160000280ED0002272
:10175000080C230C002818D199B2002908D1002ABE
:1017600004D1280060430300493314D972B6FEE760
:10177000281CAFB2A1B2794380B29BB24343090C9B
:101780005B181B0CEBD00122E9E79BB2002BFAD1CE
:10179000031C201CEDE7483001F0D4FA071E0AD0E4
:1017A0000200483246230021C15400903300290032
:1017B0002000FFF7B7FF380003B0F0BDF0B585B0EB
:1017C00004000F0001921D00002805D0002905D05B
:1017D000022D08D000263EE072B6FEE7036C002B17
:1017E000F6D072B6FEE7E36B012B01D072B6FEE7CE
:1017F000002630E02A0039002000FFF7BEFE636AB1
:10180000002B06D100280DD1FFF784FD012005B083
:10181000F0BD2000243000F0D9FE0028F4D0FFF7FE
:1018200061FDF1E7FFF75EFDEEE7FFF773FD0020D6
:10183000EDE702A800F052FF013619E04423002230
:10184000E25420E045230022E25421E02000FFF78B
:10185000D6FE00F0ABFDFFF751FDA36BE26B9342A8
:10186000C8D3022DC6D0019B002BDED0002EE0D0C5
:10187000FFF750FD00F0EAFCFFF740FD4423E25C77
:1018800052B2531CDAD04523E25C52B2531CD9D079
:10189000FFF740FD01A902A800F02CFF002813D19A
:1018A0002000FFF74DFE0028D0D020001030019915
:1018B00000F07AFE2000FFF7A2FE00F077FD00287E
:1018C000C9D1FFF70FFDC6E72000FFF798FE00F033
:1018D0006DFD00209BE7F0B585B004000F0001927C
:1018E000002803D0002903D0002640E072B6FEE7AE
:1018F000036C002B01D072B6FEE7002637E03900FA
:101900002000FFF76AFE013DA5632369002B04D187
:10191000FFF700FD012005B0F0BD2000103000F001
:1019200055FE0028F4D0FFF7DDFCF1E7FFF7F2FCED
:101930000020F0E702A800F0D1FE013621E04423A8
:101940000022E25428E045230022E25429E020004E
:10195000FFF755FE00F02AFD09E02000FFF74FFEDB
:1019600000F024FD2000FFF7FAFD002835D1FFF735
:10197000C5FCA56B002DC2D1019B002BD6D0002E3B
:10198000D8D0FFF7C7FC00F061FCFFF7B7FC442399
:10199000E35C5BB20133D2D04523E35C5BB201333D
:1019A000D1D0FFF7B7FC01A902A800F0A3FE0028E0
:1019B000D3D12000FFF7D3FD0028C8D02000243069
:1019C000019900F0F1FD2000FFF719FE00F0EEFC98
:1019D0000028CCD1FFF786FCC9E700209BE781688F
:1019E0004368CB180068181A814200D8401A704723
:1019F000F0B583B006000C001500019308AB1F780A
:101A00005521200001F0A3FA844201D072B6FEE70E
:101A100024220021300001F09AFAB461B560019BE4
:101A2000F36037770023336203B0F0BDF0B583B0C5
:101A30000600019114001D00002A01D172B6FEE7D4
:101A400083685F1B974200D91700EA19934201D2BD
:101A500072B6FEE7B36958193A00019901F06EFABF
:101A6000BC420AD9E21BB3689A4201D972B6FEE7BA
:101A7000019BD919B06901F061FA6019B36883421A
:101A800000D8C01A03B0F0BDF0B583B007000E0057
:101A900015001C004368027FD2070CD50195089AF7
:101AA000944201D200240BE0042201A9FFF7BEFFFB
:101AB00003002C0002E0AC4200D92C00002C02D123
:101AC000200003B0F0BD220031003800FFF7AEFF68
:101AD0007860F5E7F0B583B00600019114001F00AF
:101AE000002A01D172B6FEE78368DD1B954200D95A
:101AF0001500AC4201D272B6FEE77A19934201D2C8
:101B000072B6FEE7B369D9192A00019801F016FAF6
:101B1000AC4206D8E019B368834200D8C01A03B0BB
:101B2000F0BD019B5819621BB16901F007FAF1E79A
:101B3000F0B583B005000E0017001C000368027F9B
:101B4000D20707D4BC4200D93C00002C0FD12000A2
:101B500003B0F0BD042201A9FFF7BCFF0300019A06
:101B6000043C974201D31700ECE70027EAE7220084
:101B700031002800FFF7AEFF2860E8E7F0B5C64661
:101B800000B584B00D001C00012A05D0022A07D040
:101B900000280DD172B6FEE7042805D872B6FEE71C
:101BA000002803D172B6FEE7012702E0042700E017
:101BB0000027A84201D272B6FEE7002D00D1013500
:101BC0000300263311D8431C9846253001F0BAF89B
:101BD000061E0BD0010024310A9B0293019400974A
:101BE0002B004246FFF704FF00E00026300004B05F
:101BF00080BCB846F0BD10B500280DD001688268E1
:101C00000368D31844681B1B04688C42F6D1581E25
:101C1000824200D8801A10BD72B6FEE7F0B5C64603
:101C200000B586B004000E1E904603930CD0002829
:101C30000CD083685F1E037FDB070FD513000433CE
:101C40009A4205D372B6FEE772B6FEE772B6FEE7B9
:101C50009F4231D2002203921F0002E0BA4200D814
:101C60001700039B002B2FD004A800F023FDFFF7E3
:101C700045FB2000FFF7BFFF0500874220D9216AFE
:101C8000002000F03FFF6369002B17D100F06AFDD0
:101C90006061FFF73FFB039B0093002300220021BC
:101CA000206A00F065FD0023636103A904A800F029
:101CB00021FD0028DBD005E01F00D2E772B6FEE769
:101CC000FFF728FB002D03D12000FFF794FF05004C
:101CD00000972B00424631002000FFF7D5FE051E7D
:101CE00004D1280006B080BCB846F0BD2000FFF744
:101CF00076FEE3689842F4D300F0A8FA2369002B3B
:101D000008D020690026009600230022216A00F0F6
:101D100097FD266100F04AFBE3E7F0B585B00400CB
:101D20000D0016000393002914D0002814D0037F5F
:101D3000DB0713D5171D2000FFF75DFF0300009799
:101D4000320029002000FFF79FFE051E08D1280061
:101D500005B0F0BD72B6FEE772B6FEE71700EAE71F
:101D60002000FFF73CFEE3689842F0D3FFF7A8FBA2
:101D700006002369002B0AD02069039B01930027EA
:101D8000009700230022216A00F0FCFD276130004B
:101D9000FFF79AFBDBE7F0B5CE4600B584B0040050
:101DA0000D0003921E00002909D0002809D0037FEE
:101DB000DA0708D45B071BD5C368994605E072B6FD
:101DC000FEE772B6FEE704239946002E28D0FFF7FF
:101DD00095FA2000FFF703FE070081450ED3216A24
:101DE000002000F08FFE2369002B04D072B6FEE7BE
:101DF00000239946E9E700F0B5FC2061FFF78AFA75
:101E0000B94511D30096002300220021206A00F07A
:101E1000AFFC002323612000FFF7E1FD070003E092
:101E20002000FFF7DCFD07004F4505D800252800FE
:101E300004B080BCB946F0BD3B00039A29002000E5
:101E4000FFF776FE051EF2D000F000FA6369002B62
:101E500008D060690026009600230022216A00F065
:101E6000EFFC666100F0A2FAE1E7F0B585B004008E
:101E70000D001600039300290FD000280FD0037F18
:101E8000DB070ED504272000FFF7A9FD03008742DA
:101E900009D30025280005B0F0BD72B6FEE772B682
:101EA000FEE70027EFE7320029002000FFF740FEA1
:101EB000051EEFD0FFF704FB06006369002B0AD074
:101EC0006069039B01930027009700230022216A89
:101ED00000F058FD67613000FFF7F6FADAE700001E
:101EE000084B1B681B68002B04D1074B0122524290
:101EF0001A607047034B1B68DB681A68024B1A6054
:101F0000F7E7C0465C000020BC010020F0B583B0BC
:101F100001900E0014001D000A9F9200A521386B4D
:101F200001F015F81C4BE3189B003A6B9446634490
:101F3000072293431C00002E0ED000220F2A08D83F
:101F4000B15CBB1834331970B35C002B01D0013283
:101F5000F4E743230022FA54089B032B01D972B6FD
:101F6000FEE7089BFB62381D00F05BFE380018306E
:101F700000F057FE3F610423089A9B1ABB617F6201
:101F80002A0001992000FFF7F5F93860099B002B22
:101F900000D01F6003B0F0BDFFFFFF3FF0B587B07A
:101FA00004000D0016001F000D9B002B09D00E9B96
:101FB000002B08D04C230593059B4C2B05D072B603
:101FC000FEE772B6FEE772B6FEE7059B4C220021E3
:101FD0000E9800F0BCFF0E9B0D9A1A634923022253
:101FE0000E99CA540023039302910F9B01930C9BFB
:101FF00000933B00320029002000FFF787FF0E9876
:1020000007B0F0BD10B5034B1B68012BFBD9FFF7E0
:1020100069F9F8E76400002070B5002407E0A30028
:102020001B199A000B48801800F0F0FD0134032CB6
:10203000F5D9094D280000F0E9FD084C200000F01A
:10204000E5FD074800F0E2FD064B1D60064B1C60F5
:1020500070BDC046640000204401002058010020EB
:10206000C80100205C0000206000002010B50400C2
:10207000FFF744F9284A136801331360274B1B68A4
:10208000002B0CD0264B1B68002B0DD1234B1B685B
:10209000DB6AE26A934207D8204B1C6004E01F4BC6
:1020A0001C601368012B30D01E4A13680133136083
:1020B000E26A1D4B1B689A4201D91B4B1A601B49EF
:1020C00093009B189B00CB185B68A3609868E06046
:1020D000221D42609A60E06A83001A1892008A18F2
:1020E00062611A189200525801321B189B005A5014
:1020F000FFF710F90A4B1B68002B05D0074B1B6834
:10210000DA6AE36A9A4203D310BDFFF785FFCBE793
:10211000FFF7E8F8F8E7C046B400002058000020B8
:10212000DC0100203C010020400100206400002070
:10213000F0B587B00490059116001F00900000F0E4
:1021400001FE051E21D04C2000F0FCFD041E18D01D
:102150004C22002100F0FBFE2563002C0ED0002352
:102160004922A354039302940D9B01930C9B00936B
:102170003B00320005990498FFF7C8FE200007B025
:10218000F0BD280000F074FEE7E70400F6E7000069
:10219000F0B5C64600B50400134B1D68134B1F680D
:1021A000134B1B689846134E3068043000F053FD03
:1021B0002C1933685C60A54208D90E4B19680431AC
:1021C000404600F031FD80BCB846F0BD094B1968AF
:1021D0000431380000F028FD074B1B68A342F2D9F8
:1021E000054B1C60EFE7C046E00100205C000020CA
:1021F0006000002058000020BC01002010B586B00F
:102200000024059405AC03940A9C0294099C019453
:10221000089C0094FFF7C2FE002801D0FFF726FFBC
:10222000059806B010BD10B582B0059C0194049CC1
:102230000094FFF77DFF002804D0FFF717FF01206F
:1022400002B010BD01204042FAE70000024A1368C4
:10225000013313607047C04638010020F8B5484B81
:102260001B68002B00D084E0464B1E6801361E60C0
:10227000002E12D1444B1B681B68002B01D072B694
:10228000FEE7414A1168414B186810601960404AE6
:10229000136801331360FFF723FE3E4B1B68B34204
:1022A00006D900203C4B1B68002B67D0012065E05D
:1022B000002033E0374B012252421A60F2E7354BDF
:1022C0001A60EFE7D96851603EE000219962116819
:1022D00001391160DA6A314909688A4201D92F4906
:1022E0000A602F499400A418A2008A1852689A60C4
:1022F0009468DC6065609560DC6AA2001719BD0017
:102300004D195D61BD006D580135BC006550DA6A3C
:10231000244B1B68DB6A9A4200D901201A4B1B68C8
:102320001B68002BC6D0184B1B68DB68DB685A683B
:102330009642C4D35A699C68D968A1609C684C6075
:102340001D1D5168A942BDD0002159611168013994
:1023500011609A6A002ABDD0DC69196AA160DC6943
:102360004C601900183154688C42AED1196A516022
:10237000ABE70D4A1368013313600020F8BDC04677
:1023800038010020E00100205C00002060000020F7
:10239000C0010020BC010020E40100204001002019
:1023A0006400002058000020C401002010B5FEF792
:1023B000A5FF474B1B68002B01D172B6FEE7444BCB
:1023C0001A68013A1A601B68002B7CD1414B1B68CC
:1023D000002B07D1002477E0196A516015E0D96815
:1023E000516021E000233C4A1268002A4AD03A4B4F
:1023F000DB68DB689A6AD869196A8160D8694860C5
:102400001900183150688842E6D00021996211689D
:10241000013911605A699868D96881609868486084
:102420001C1D5168A142DAD000215961116801399F
:102430001160D96A294A1268914201D9274A11606C
:1024400027488A0052189200821852689A60916850
:10245000D9604C609460DC6AA200111989004118AF
:10246000596111198900095801311219920011504E
:102470001C4A1268D26AD96A9142B4D91A4A012117
:102480001160B0E7002B01D0FFF72AFD174B1C6845
:10249000002C0CD1144B1C68002C15D0114B1B6860
:1024A000FEF720FF01240FE0013C002C07D0FFF7CE
:1024B000D5FE0028F8D00C4B01221A60F4E70B4B34
:1024C00000221A60E6E70024FEF724FF200010BD7A
:1024D00038010020B4000020C80100204001002085
:1024E0006400002058000020E4010020C401002006
:1024F00010B5041E0FD0FFF7A9FE084B1B68012B77
:1025000001D072B6FEE700212000FFF741FEFFF781
:102510004DFF002801D1FEF7E5FE10BD3801002077
:1025200010B51C4B1B68002B03D01B4B01221A60FB
:1025300010BD194B00221A60184B1B689A00D21864
:102540009100174A8A58002A05D1002B01D0013B7F
:10255000F4E772B6FEE712489A0041184C686468C6
:102560004C60D21891000831401884420CD09A0077
:10257000D21891000A4A52185268D168094A11606B
:1025800006490B601368D3E79000054A1218D1681A
:102590005160ECE738010020E401002040010020F8
:1025A000640000205800002010B50C00002809D05D
:1025B000054B1968183100F037FB01212000FFF7A7
:1025C000E7FD10BD72B6FEE75800002010B5C368E5
:1025D000DB68002B4CD09A6AD869196A8160D86987
:1025E0004860180018305168814243D00021996238
:1025F000116801391160294A1268002A40D15A69CC
:102600009868D9688160986848601C1D5168A1422B
:1026100033D000215961116801391160D96A204A0B
:102620001268914201D91E4A11601E488A00521850
:102630009200821852689A609168D9604C609460E8
:10264000DC6AA20011198900411859611119890029
:1026500009580131121992001150DA6A124B1B68A5
:10266000DB6A9A4218D9114B01221A60012010BD71
:1026700072B6FEE7196A5160B8E7D9685160C8E7D9
:102680000B4A5168D9618C681C62606088609A62EC
:10269000116801311160E0E70020E8E7380100200F
:1026A000400100206400002058000020E4010020C8
:1026B000C801002010B5041E0AD0FEF71FFE054B0E
:1026C0001B682360044B1B686360FEF723FE10BD8C
:1026D00072B6FEE7C0010020E0010020034B1B683A
:1026E0000360034B1B6843607047C046C001002075
:1026F000E001002070B504000D00002812D0002970
:1027000012D0FEF7FBFD124B1A686368D01A11490C
:10271000096826688E4209D0934207D800232B60AF
:10272000012409E072B6FEE772B6FEE7296881422D
:1027300006D800232B600124FEF7ECFD200070BDBD
:102740009B1A5B182B602000FFF7C8FF0024F3E7FB
:10275000E0010020C0010020014B01221A607047F7
:10276000E4010020014B18687047C0465800002063
:10277000F8B504000D0016001F00002801D072B645
:10278000FEE7FFF763FDFEF7B9FD2C4B1B681B1935
:1027900048331B78022B35D028490B6822001032B1
:1027A00092009B185A68AA435A600B681B19483359
:1027B00001221A70069B002B28D1FEF7ABFD0025E5
:1027C000FFF7F4FD012D29D0FEF798FD002F07D06B
:1027D0001A4B1B682200103292009B185B683B600A
:1027E000164B1B681B1948331B78022B1BD0002586
:1027F000124B18680419483400232370FEF78AFD31
:102800002800F8BDFEF786FD0025D9E7FEF782FD1A
:1028100001210698FFF7BCFC0125D1E70028D3D1A0
:10282000FEF760FDD0E7054B1B68220010329200D6
:102830009B185A68B2435A600125D9E75800002016
:10284000F8B506000C0015001F00002901D072B673
:10285000FEE7002817D0FEF751FD069B002B06D09F
:10286000230010339B00F3185B68069A136033193A
:1028700048331A78D2B202211970042F27D8BF002A
:102880003B49CB599F4672B6FEE7230010339B00AD
:10289000F31859680D435D6001241FE023001033D5
:1028A0009B00F318596801315960012416E0230098
:1028B00010339B00F3185D6001240FE0022A43D01F
:1028C000230010339B00F3185D60012406E0294BC0
:1028D0001B68002B3AD072B6FEE70124012A40D1D2
:1028E0007369B268F1689160F268B1685160301D37
:1028F0005A6882422CD0002272611A68013A1A602A
:10290000F26A1D4B1B689A4201D91B4B1A601B4986
:1029100093009B189B00CB185B68B3609A68F260C9
:1029200050609860F06A83001A1892008A187261E9
:102930001A189200525801321B189B005A50B36A61
:10294000002B08D072B6FEE70024C7E70124C5E7D4
:10295000F2685A60CFE70A4B1B68DA6AF36A9A4258
:1029600003D3FEF7D7FC2000F8BDFEF7BBFCF8E769
:10297000EC2F0008E001002040010020640000204E
:1029800058000020F8B504000D0016001F000028B4
:1029900003D0002903D072B6FEE772B6FEE7FEF759
:1029A0008FFD069B002B06D02B0010339B00E318F5
:1029B0005B68069A1360631948331A78D2B2022111
:1029C0001970042F25D8BF004649CB599F462B00CC
:1029D00010339B00E31859680E435E6001251FE029
:1029E0002B0010339B00E318596801315960012511
:1029F00016E02B0010339B00E3185E6001250FE00A
:102A0000022A14D02B0010339B00E3185E600125CE
:102A100006E0354B1B68002B0BD072B6FEE7012594
:102A2000012A4AD1A36A002B05D072B6FEE7002521
:102A3000F6E70125F4E72D4B1B68002B44D16369B1
:102A4000A268E1689160E268A1685160261D5A6839
:102A5000B24236D0002262611A68013A1A60E26A14
:102A6000234B1B689A4201D9214B1A6021499300DC
:102A70009B189B00CB185B68A3609A68E260566065
:102A80009E60E66AB3009A1992008A1862619A19E8
:102A90009200525801329B199B005A50E26A164B21
:102AA0001B68DB6A9A4208D9079B002B02D00123DE
:102AB000079A1360114B01221A60FEF705FD2800EA
:102AC000F8BDE2685A60C5E70D4B5A68E261966846
:102AD00026622100183171609160A3621A68013288
:102AE0001A60DBE700300008E00100203801002018
:102AF000400100206400002058000020E401002074
:102B0000C801002070B504000D1E01D072B6FEE7AA
:102B100000280BD0FEF7F2FB631948331B78022B19
:102B200007D00024FEF7F6FB200070BD044B1C68A4
:102B3000F0E764194834002323700124F2E7C0460B
:102B400058000020034B0360034B0B6020231360ED
:102B50007047C04670010020B800002030B58DB02D
:102B600000230F2B07DC154AD25C08A9CA54002A9F
:102B700001D00133F5E70024002C02DD01200DB067
:102B800030BD00250595069507AA06A905A8FFF7FB
:102B9000D9FF059B0293069B019300950023079A9A
:102BA00008A90748FFF72AFBA300064A9850002807
:102BB00001D00134E0E70020E1E7C046143000080E
:102BC000052000086C01002010B5FFF7C7FF0128A1
:102BD00004D0431C10D0094B1B6810BD72B6084BC3
:102BE000012252421A60074B02321A60064B002241
:102BF0001A60FEF70FFCEEE772B6FEE72800002031
:102C0000BC010020DC010020E001002003000833AB
:102C10004360012252428260C3600361002303606B
:102C2000704700230361704730B50C68631C10D0F7
:102C3000030008331A005B681D68A542FAD953687F
:102C40004B6099608A6051600861036801330360DA
:102C500030BD0269F3E70369416882688A604168B0
:102C600051605A68824205D0002202611A68501EE3
:102C70001860704782685A60F6E700000F4A5307F1
:102C80001AD0D11D072399430D4B5B1A9B180A00DC
:102C90000C48026000214160D318083B07208343A1
:102CA0000948036059601960991A51601360074B15
:102CB0001960074B19607047014BE9E7EC010020F0
:102CC0009C07000098090020E80100208C090020E2
:102CD0008809002010B5174B19001B688342FBD3ED
:102CE000144A914207D0144A914202D3134A9142A6
:102CF00001D972B6FEE74A688C18844208D042684F
:102D00008418A34209D00360884200D0086010BD37
:102D1000406812184A600800F1E7094C2468A34291
:102D200006D05B68D21842600B681B680360EBE753
:102D30000460E9E798090020EC01002087090020E1
:102D4000E8010020F8B5041E10D0030009330CD8A8
:102D5000083407231A002240234207D001339B1A6C
:102D6000DA43A24219D3E41800E00024FFF76EFA18
:102D7000384B1B68002B12D0002C5CDB5DD0364B2F
:102D80001868A04260D3354B1B68354A934202D382
:102D9000344A934208D972B6FEE70024E6E7FFF70B
:102DA0006DFFE9E772B6FEE72C495A68A2420BD2E2
:102DB0001A68002A08D02A498A42F3D31900294BFD
:102DC0009A42EFD81300F0E7224A12689A423DD0A7
:102DD0000D680835224A954202D3224A954201D90C
:102DE00072B6FEE71A680A605A68A24207D3121B3D
:102DF000102A0BD91E19770703D072B6FEE772B6F8
:102E0000FEE772605C600A6832600E605968401AC2
:102E1000114A1060144A1268904201D2124A10609E
:102E2000802212060A435A6000221A600F4A136871
:102E30000133136002E0002500E00025FFF7B6FA39
:102E40006B0705D072B6FEE70025F7E70025F5E72A
:102E50002800F8BDE801002088090020980900201A
:102E6000EC010020870900208C0900209009002037
:102E700070B5041E30D00500083D1A4B9D4207D3A3
:102E8000194B9D4204D86B68002B03DB72B6FEE73A
:102E900072B6FEE70200083A1268002A01D072B644
:102EA000FEE7002B18DA5B005A080300083B5A6063
:102EB000072A12D8FFF7CAF9083C63680B4A116861
:102EC0008C46634413602800FFF704FF084A136828
:102ED00001331360FFF76AFA70BD083A002100F071
:102EE00036F8E7E7EC010020870900208809002078
:102EF0009409002070B500260C4D0D4C641BA410E5
:102F0000A64209D1002600F02BF80A4D0A4C641B9A
:102F1000A410A64205D170BDB300EB589847013606
:102F2000EEE7B300EB5898470136F2E71C30000893
:102F30001C3000081C30000820300008002310B5A9
:102F40009A4200D110BDCC5CC4540133F8E70300B1
:102F50008218934200D1704719700133F9E70000DD
:102F6000F8B5C046F8BC08BC9E467047F8B5C046E8
:082F7000F8BC08BC9E46704746
:102F78006C65645F7461736B00000000F6050008FF
:102F88000A0600083806000844060008500600082B
:102F98005C06000868060008F6050008F605000843
:102FA800F6050008F6050008F6050008F60500080D
:102FB800F6050008F60500087406000880060008F3
:102FC8006D6F646275735F7461736B00100020002D
:102FD8004000800000020004756172745F746173C0
:102FE8006B000000DA2800088A2800089C280008DE
:102FF800AE280008BC2800081E2A0008CE290008B0
:10300800E0290008F2290008002A000849444C4534
:0430180000000000B4
:04301C00E9000008BF
:04302000C1000008E3
:103024000000000000000000010203040607080974
:10303400006CDC020000000001020304010203042E
:0C30440006070809AAAAAAAA03000000B7
:0400000508000A8164
:00000001FF
